{
  "_format": "hh-sol-artifact-1",
  "contractName": "NFTMultiSender",
  "sourceName": "contracts/NFTMultiSender.sol",
  "abi": [
    {
      "anonymous": false,
      "inputs": [
        {
          "indexed": true,
          "internalType": "address",
          "name": "nftContract",
          "type": "address"
        },
        {
          "indexed": true,
          "internalType": "address",
          "name": "from",
          "type": "address"
        },
        {
          "indexed": true,
          "internalType": "address",
          "name": "to",
          "type": "address"
        },
        {
          "indexed": false,
          "internalType": "uint256",
          "name": "tokenId",
          "type": "uint256"
        },
        {
          "indexed": false,
          "internalType": "bool",
          "name": "success",
          "type": "bool"
        }
      ],
      "name": "NFTSent",
      "type": "event"
    },
    {
      "anonymous": false,
      "inputs": [
        {
          "indexed": true,
          "internalType": "address",
          "name": "nftContract",
          "type": "address"
        },
        {
          "indexed": false,
          "internalType": "uint256",
          "name": "tokenId",
          "type": "uint256"
        },
        {
          "indexed": false,
          "internalType": "string",
          "name": "reason",
          "type": "string"
        }
      ],
      "name": "TransferError",
      "type": "event"
    },
    {
      "inputs": [
        {
          "internalType": "address",
          "name": "nftContract",
          "type": "address"
        },
        {
          "internalType": "address[]",
          "name": "recipients",
          "type": "address[]"
        },
        {
          "internalType": "uint256[]",
          "name": "tokenIds",
          "type": "uint256[]"
        }
      ],
      "name": "multisendNFT",
      "outputs": [],
      "stateMutability": "nonpayable",
      "type": "function"
    },
    {
      "inputs": [
        {
          "internalType": "address",
          "name": "nftContract",
          "type": "address"
        },
        {
          "internalType": "address[]",
          "name": "recipients",
          "type": "address[]"
        },
        {
          "internalType": "uint256[]",
          "name": "tokenIds",
          "type": "uint256[]"
        }
      ],
      "name": "multisendNFTUnsafe",
      "outputs": [],
      "stateMutability": "nonpayable",
      "type": "function"
    },
    {
      "inputs": [
        {
          "internalType": "address",
          "name": "",
          "type": "address"
        },
        {
          "internalType": "address",
          "name": "",
          "type": "address"
        },
        {
          "internalType": "uint256",
          "name": "",
          "type": "uint256"
        },
        {
          "internalType": "bytes",
          "name": "",
          "type": "bytes"
        }
      ],
      "name": "onERC721Received",
      "outputs": [
        {
          "internalType": "bytes4",
          "name": "",
          "type": "bytes4"
        }
      ],
      "stateMutability": "pure",
      "type": "function"
    }
  ],
  "bytecode": "0x608060405234801561001057600080fd5b5061113b806100206000396000f3fe608060405234801561001057600080fd5b50600436106100415760003560e01c8063150b7a021461004657806345eb2012146100765780639c76159a14610092575b600080fd5b610060600480360381019061005b91906109a0565b6100ae565b60405161006d9190610a63565b60405180910390f35b610090600480360381019061008b9190610b2a565b6100c3565b005b6100ac60048036038101906100a79190610b2a565b6104ab565b005b600063150b7a0260e01b905095945050505050565b81819050848490501461010b576040517f08c379a000000000000000000000000000000000000000000000000000000000815260040161010290610c42565b60405180910390fd5b600085905060005b858590508110156104a2573373ffffffffffffffffffffffffffffffffffffffff168273ffffffffffffffffffffffffffffffffffffffff16636352211e86868581811061016457610163610c62565b5b905060200201356040518263ffffffff1660e01b81526004016101879190610ca0565b602060405180830381865afa1580156101a4573d6000803e3d6000fd5b505050506040513d601f19601f820116820180604052508101906101c89190610cd0565b73ffffffffffffffffffffffffffffffffffffffff161461021e576040517f08c379a000000000000000000000000000000000000000000000000000000000815260040161021590610d6f565b60405180910390fd5b8173ffffffffffffffffffffffffffffffffffffffff166323b872dd3388888581811061024e5761024d610c62565b5b90506020020160208101906102639190610d8f565b87878681811061027657610275610c62565b5b905060200201356040518463ffffffff1660e01b815260040161029b93929190610dcb565b600060405180830381600087803b1580156102b557600080fd5b505af19250505080156102c6575060015b6103cf576102d2610e0f565b806308c379a00361036057506102e6610ea2565b806102f15750610362565b8773ffffffffffffffffffffffffffffffffffffffff167fe3a02e2e3833c177de64c94438f4802c3fca0221fdc28631dbe52fda507233b986868581811061033c5761033b610c62565b5b9050602002013583604051610352929190610fa0565b60405180910390a2506103ca565b505b8673ffffffffffffffffffffffffffffffffffffffff167fe3a02e2e3833c177de64c94438f4802c3fca0221fdc28631dbe52fda507233b98585848181106103ad576103ac610c62565b5b905060200201356040516103c1919061101c565b60405180910390a25b61048f565b8585828181106103e2576103e1610c62565b5b90506020020160208101906103f79190610d8f565b73ffffffffffffffffffffffffffffffffffffffff163373ffffffffffffffffffffffffffffffffffffffff168873ffffffffffffffffffffffffffffffffffffffff167f9692f8e52e7ac38420bbe066d993abce40931a1746fbb513399aeab09855d38087878681811061046f5761046e610c62565b5b905060200201356001604051610486929190611065565b60405180910390a45b808061049a906110bd565b915050610113565b50505050505050565b8181905084849050146104f3576040517f08c379a00000000000000000000000000000000000000000000000000000000081526004016104ea90610c42565b60405180910390fd5b600085905060005b8585905081101561088a573373ffffffffffffffffffffffffffffffffffffffff168273ffffffffffffffffffffffffffffffffffffffff16636352211e86868581811061054c5761054b610c62565b5b905060200201356040518263ffffffff1660e01b815260040161056f9190610ca0565b602060405180830381865afa15801561058c573d6000803e3d6000fd5b505050506040513d601f19601f820116820180604052508101906105b09190610cd0565b73ffffffffffffffffffffffffffffffffffffffff1614610606576040517f08c379a00000000000000000000000000000000000000000000000000000000081526004016105fd90610d6f565b60405180910390fd5b8173ffffffffffffffffffffffffffffffffffffffff166342842e0e3388888581811061063657610635610c62565b5b905060200201602081019061064b9190610d8f565b87878681811061065e5761065d610c62565b5b905060200201356040518463ffffffff1660e01b815260040161068393929190610dcb565b600060405180830381600087803b15801561069d57600080fd5b505af19250505080156106ae575060015b6107b7576106ba610e0f565b806308c379a00361074857506106ce610ea2565b806106d9575061074a565b8773ffffffffffffffffffffffffffffffffffffffff167fe3a02e2e3833c177de64c94438f4802c3fca0221fdc28631dbe52fda507233b986868581811061072457610723610c62565b5b905060200201358360405161073a929190610fa0565b60405180910390a2506107b2565b505b8673ffffffffffffffffffffffffffffffffffffffff167fe3a02e2e3833c177de64c94438f4802c3fca0221fdc28631dbe52fda507233b985858481811061079557610794610c62565b5b905060200201356040516107a9919061101c565b60405180910390a25b610877565b8585828181106107ca576107c9610c62565b5b90506020020160208101906107df9190610d8f565b73ffffffffffffffffffffffffffffffffffffffff163373ffffffffffffffffffffffffffffffffffffffff168873ffffffffffffffffffffffffffffffffffffffff167f9692f8e52e7ac38420bbe066d993abce40931a1746fbb513399aeab09855d38087878681811061085757610856610c62565b5b90506020020135600160405161086e929190611065565b60405180910390a45b8080610882906110bd565b9150506104fb565b50505050505050565b6000604051905090565b600080fd5b600080fd5b600073ffffffffffffffffffffffffffffffffffffffff82169050919050565b60006108d2826108a7565b9050919050565b6108e2816108c7565b81146108ed57600080fd5b50565b6000813590506108ff816108d9565b92915050565b6000819050919050565b61091881610905565b811461092357600080fd5b50565b6000813590506109358161090f565b92915050565b600080fd5b600080fd5b600080fd5b60008083601f8401126109605761095f61093b565b5b8235905067ffffffffffffffff81111561097d5761097c610940565b5b60208301915083600182028301111561099957610998610945565b5b9250929050565b6000806000806000608086880312156109bc576109bb61089d565b5b60006109ca888289016108f0565b95505060206109db888289016108f0565b94505060406109ec88828901610926565b935050606086013567ffffffffffffffff811115610a0d57610a0c6108a2565b5b610a198882890161094a565b92509250509295509295909350565b60007fffffffff0000000000000000000000000000000000000000000000000000000082169050919050565b610a5d81610a28565b82525050565b6000602082019050610a786000830184610a54565b92915050565b60008083601f840112610a9457610a9361093b565b5b8235905067ffffffffffffffff811115610ab157610ab0610940565b5b602083019150836020820283011115610acd57610acc610945565b5b9250929050565b60008083601f840112610aea57610ae961093b565b5b8235905067ffffffffffffffff811115610b0757610b06610940565b5b602083019150836020820283011115610b2357610b22610945565b5b9250929050565b600080600080600060608688031215610b4657610b4561089d565b5b6000610b54888289016108f0565b955050602086013567ffffffffffffffff811115610b7557610b746108a2565b5b610b8188828901610a7e565b9450945050604086013567ffffffffffffffff811115610ba457610ba36108a2565b5b610bb088828901610ad4565b92509250509295509295909350565b600082825260208201905092915050565b7f526563697069656e747320616e6420746f6b656e49647320617272617973206d60008201527f7573742068617665207468652073616d65206c656e6774680000000000000000602082015250565b6000610c2c603883610bbf565b9150610c3782610bd0565b604082019050919050565b60006020820190508181036000830152610c5b81610c1f565b9050919050565b7f4e487b7100000000000000000000000000000000000000000000000000000000600052603260045260246000fd5b610c9a81610905565b82525050565b6000602082019050610cb56000830184610c91565b92915050565b600081519050610cca816108d9565b92915050565b600060208284031215610ce657610ce561089d565b5b6000610cf484828501610cbb565b91505092915050565b7f596f75206d75737420626520746865206f776e6572206f662074686520746f6b60008201527f656e000000000000000000000000000000000000000000000000000000000000602082015250565b6000610d59602283610bbf565b9150610d6482610cfd565b604082019050919050565b60006020820190508181036000830152610d8881610d4c565b9050919050565b600060208284031215610da557610da461089d565b5b6000610db3848285016108f0565b91505092915050565b610dc5816108c7565b82525050565b6000606082019050610de06000830186610dbc565b610ded6020830185610dbc565b610dfa6040830184610c91565b949350505050565b60008160e01c9050919050565b600060033d1115610e2e5760046000803e610e2b600051610e02565b90505b90565b6000601f19601f8301169050919050565b7f4e487b7100000000000000000000000000000000000000000000000000000000600052604160045260246000fd5b610e7a82610e31565b810181811067ffffffffffffffff82111715610e9957610e98610e42565b5b80604052505050565b600060443d10610f2f57610eb4610893565b60043d036004823e80513d602482011167ffffffffffffffff82111715610edc575050610f2f565b808201805167ffffffffffffffff811115610efa5750505050610f2f565b80602083010160043d038501811115610f17575050505050610f2f565b610f2682602001850186610e71565b82955050505050505b90565b600081519050919050565b60005b83811015610f5b578082015181840152602081019050610f40565b60008484015250505050565b6000610f7282610f32565b610f7c8185610bbf565b9350610f8c818560208601610f3d565b610f9581610e31565b840191505092915050565b6000604082019050610fb56000830185610c91565b8181036020830152610fc78184610f67565b90509392505050565b7f556e6b6e6f776e207472616e73666572206572726f7200000000000000000000600082015250565b6000611006601683610bbf565b915061101182610fd0565b602082019050919050565b60006040820190506110316000830184610c91565b818103602083015261104281610ff9565b905092915050565b60008115159050919050565b61105f8161104a565b82525050565b600060408201905061107a6000830185610c91565b6110876020830184611056565b9392505050565b7f4e487b7100000000000000000000000000000000000000000000000000000000600052601160045260246000fd5b60006110c882610905565b91507fffffffffffffffffffffffffffffffffffffffffffffffffffffffffffffffff82036110fa576110f961108e565b5b60018201905091905056fea2646970667358221220112ac320c17b0a346abcea6536e7e3768f9132f0e4efe9b6e99c7f2b0259055264736f6c63430008140033",
  "linkReferences": {},
  "deployedLinkReferences": {}
}